{
  "_format": "hh-sol-artifact-1",
  "contractName": "TheLShips",
  "sourceName": "contracts/TheLShips.sol",
  "abi": [
    {
      "inputs": [
        {
          "internalType": "string",
          "name": "_name",
          "type": "string"
        },
        {
          "internalType": "string",
          "name": "_symbol",
          "type": "string"
        }
      ],
      "stateMutability": "nonpayable",
      "type": "constructor"
    },
    {
      "anonymous": false,
      "inputs": [
        {
          "indexed": true,
          "internalType": "address",
          "name": "owner",
          "type": "address"
        },
        {
          "indexed": true,
          "internalType": "address",
          "name": "approved",
          "type": "address"
        },
        {
          "indexed": true,
          "internalType": "uint256",
          "name": "tokenId",
          "type": "uint256"
        }
      ],
      "name": "Approval",
      "type": "event"
    },
    {
      "anonymous": false,
      "inputs": [
        {
          "indexed": true,
          "internalType": "address",
          "name": "owner",
          "type": "address"
        },
        {
          "indexed": true,
          "internalType": "address",
          "name": "operator",
          "type": "address"
        },
        {
          "indexed": false,
          "internalType": "bool",
          "name": "approved",
          "type": "bool"
        }
      ],
      "name": "ApprovalForAll",
      "type": "event"
    },
    {
      "anonymous": false,
      "inputs": [
        {
          "indexed": false,
          "internalType": "address",
          "name": "_sender",
          "type": "address"
        },
        {
          "indexed": false,
          "internalType": "uint256",
          "name": "_tokenId",
          "type": "uint256"
        }
      ],
      "name": "NewTokenMinted",
      "type": "event"
    },
    {
      "anonymous": false,
      "inputs": [
        {
          "indexed": true,
          "internalType": "address",
          "name": "from",
          "type": "address"
        },
        {
          "indexed": true,
          "internalType": "address",
          "name": "to",
          "type": "address"
        },
        {
          "indexed": true,
          "internalType": "uint256",
          "name": "tokenId",
          "type": "uint256"
        }
      ],
      "name": "Transfer",
      "type": "event"
    },
    {
      "inputs": [
        {
          "internalType": "address",
          "name": "to",
          "type": "address"
        },
        {
          "internalType": "uint256",
          "name": "tokenId",
          "type": "uint256"
        }
      ],
      "name": "approve",
      "outputs": [],
      "stateMutability": "nonpayable",
      "type": "function"
    },
    {
      "inputs": [
        {
          "internalType": "address",
          "name": "owner",
          "type": "address"
        }
      ],
      "name": "balanceOf",
      "outputs": [
        {
          "internalType": "uint256",
          "name": "",
          "type": "uint256"
        }
      ],
      "stateMutability": "view",
      "type": "function"
    },
    {
      "inputs": [
        {
          "internalType": "string",
          "name": "_char1",
          "type": "string"
        },
        {
          "internalType": "string",
          "name": "_char2",
          "type": "string"
        }
      ],
      "name": "buildSvg",
      "outputs": [
        {
          "internalType": "string",
          "name": "",
          "type": "string"
        }
      ],
      "stateMutability": "view",
      "type": "function"
    },
    {
      "inputs": [
        {
          "internalType": "uint256",
          "name": "",
          "type": "uint256"
        }
      ],
      "name": "chars",
      "outputs": [
        {
          "internalType": "string",
          "name": "",
          "type": "string"
        }
      ],
      "stateMutability": "view",
      "type": "function"
    },
    {
      "inputs": [
        {
          "internalType": "string",
          "name": "a",
          "type": "string"
        },
        {
          "internalType": "string",
          "name": "b",
          "type": "string"
        }
      ],
      "name": "compareStrings",
      "outputs": [
        {
          "internalType": "bool",
          "name": "",
          "type": "bool"
        }
      ],
      "stateMutability": "pure",
      "type": "function"
    },
    {
      "inputs": [
        {
          "internalType": "uint256",
          "name": "tokenId",
          "type": "uint256"
        }
      ],
      "name": "getApproved",
      "outputs": [
        {
          "internalType": "address",
          "name": "",
          "type": "address"
        }
      ],
      "stateMutability": "view",
      "type": "function"
    },
    {
      "inputs": [
        {
          "internalType": "uint256",
          "name": "_tokenId",
          "type": "uint256"
        },
        {
          "internalType": "uint16",
          "name": "_charNum",
          "type": "uint16"
        }
      ],
      "name": "getRandomChar",
      "outputs": [
        {
          "internalType": "string",
          "name": "",
          "type": "string"
        }
      ],
      "stateMutability": "view",
      "type": "function"
    },
    {
      "inputs": [
        {
          "internalType": "uint256",
          "name": "_tokenId",
          "type": "uint256"
        },
        {
          "internalType": "uint16",
          "name": "_charNum",
          "type": "uint16"
        },
        {
          "internalType": "string",
          "name": "_char",
          "type": "string"
        }
      ],
      "name": "getRandomCharWithout",
      "outputs": [
        {
          "internalType": "string",
          "name": "",
          "type": "string"
        }
      ],
      "stateMutability": "view",
      "type": "function"
    },
    {
      "inputs": [
        {
          "internalType": "address",
          "name": "owner",
          "type": "address"
        },
        {
          "internalType": "address",
          "name": "operator",
          "type": "address"
        }
      ],
      "name": "isApprovedForAll",
      "outputs": [
        {
          "internalType": "bool",
          "name": "",
          "type": "bool"
        }
      ],
      "stateMutability": "view",
      "type": "function"
    },
    {
      "inputs": [],
      "name": "mintShip",
      "outputs": [],
      "stateMutability": "nonpayable",
      "type": "function"
    },
    {
      "inputs": [],
      "name": "name",
      "outputs": [
        {
          "internalType": "string",
          "name": "",
          "type": "string"
        }
      ],
      "stateMutability": "view",
      "type": "function"
    },
    {
      "inputs": [
        {
          "internalType": "uint256",
          "name": "tokenId",
          "type": "uint256"
        }
      ],
      "name": "ownerOf",
      "outputs": [
        {
          "internalType": "address",
          "name": "",
          "type": "address"
        }
      ],
      "stateMutability": "view",
      "type": "function"
    },
    {
      "inputs": [
        {
          "internalType": "address",
          "name": "from",
          "type": "address"
        },
        {
          "internalType": "address",
          "name": "to",
          "type": "address"
        },
        {
          "internalType": "uint256",
          "name": "tokenId",
          "type": "uint256"
        }
      ],
      "name": "safeTransferFrom",
      "outputs": [],
      "stateMutability": "nonpayable",
      "type": "function"
    },
    {
      "inputs": [
        {
          "internalType": "address",
          "name": "from",
          "type": "address"
        },
        {
          "internalType": "address",
          "name": "to",
          "type": "address"
        },
        {
          "internalType": "uint256",
          "name": "tokenId",
          "type": "uint256"
        },
        {
          "internalType": "bytes",
          "name": "_data",
          "type": "bytes"
        }
      ],
      "name": "safeTransferFrom",
      "outputs": [],
      "stateMutability": "nonpayable",
      "type": "function"
    },
    {
      "inputs": [
        {
          "internalType": "address",
          "name": "operator",
          "type": "address"
        },
        {
          "internalType": "bool",
          "name": "approved",
          "type": "bool"
        }
      ],
      "name": "setApprovalForAll",
      "outputs": [],
      "stateMutability": "nonpayable",
      "type": "function"
    },
    {
      "inputs": [
        {
          "internalType": "bytes4",
          "name": "interfaceId",
          "type": "bytes4"
        }
      ],
      "name": "supportsInterface",
      "outputs": [
        {
          "internalType": "bool",
          "name": "",
          "type": "bool"
        }
      ],
      "stateMutability": "view",
      "type": "function"
    },
    {
      "inputs": [],
      "name": "symbol",
      "outputs": [
        {
          "internalType": "string",
          "name": "",
          "type": "string"
        }
      ],
      "stateMutability": "view",
      "type": "function"
    },
    {
      "inputs": [
        {
          "internalType": "uint256",
          "name": "tokenId",
          "type": "uint256"
        }
      ],
      "name": "tokenURI",
      "outputs": [
        {
          "internalType": "string",
          "name": "",
          "type": "string"
        }
      ],
      "stateMutability": "view",
      "type": "function"
    },
    {
      "inputs": [
        {
          "internalType": "address",
          "name": "from",
          "type": "address"
        },
        {
          "internalType": "address",
          "name": "to",
          "type": "address"
        },
        {
          "internalType": "uint256",
          "name": "tokenId",
          "type": "uint256"
        }
      ],
      "name": "transferFrom",
      "outputs": [],
      "stateMutability": "nonpayable",
      "type": "function"
    }
  ],
  "bytecode": "0x608060405260405180610380016040528061034681526020016200475561034691396008908051906020019062000038929190620003c6565b50604051806101a001604052806040518060400160405280600581526020017f426574746500000000000000000000000000000000000000000000000000000081525081526020016040518060400160405280600481526020017f54696e610000000000000000000000000000000000000000000000000000000081525081526020016040518060400160405280600581526020017f5368616e6500000000000000000000000000000000000000000000000000000081525081526020016040518060400160405280600581526020017f416c69636500000000000000000000000000000000000000000000000000000081525081526020016040518060400160405280600481526020017f44616e610000000000000000000000000000000000000000000000000000000081525081526020016040518060400160405280600481526020017f476967690000000000000000000000000000000000000000000000000000000081525081526020016040518060400160405280600481526020017f44616e690000000000000000000000000000000000000000000000000000000081525081526020016040518060400160405280600681526020017f536f70686965000000000000000000000000000000000000000000000000000081525081526020016040518060400160405280600581526020017f506970706100000000000000000000000000000000000000000000000000000081525081526020016040518060400160405280600681526020017f4a656e6e6e79000000000000000000000000000000000000000000000000000081525081526020016040518060400160405280600681526020017f4d6172696e61000000000000000000000000000000000000000000000000000081525081526020016040518060400160405280600681526020017f4361726d656e000000000000000000000000000000000000000000000000000081525081526020016040518060400160405280600681526020017f48656c656e610000000000000000000000000000000000000000000000000000815250815250600990600d6200035492919062000457565b503480156200036257600080fd5b5060405162004a9b38038062004a9b8339818101604052810190620003889190620005bd565b81818160009080519060200190620003a2929190620003c6565b508060019080519060200190620003bb929190620003c6565b5050505050620007a0565b828054620003d490620006c5565b90600052602060002090601f016020900481019282620003f8576000855562000444565b82601f106200041357805160ff191683800117855562000444565b8280016001018555821562000444579182015b828111156200044357825182559160200191906001019062000426565b5b509050620004539190620004be565b5090565b828054828255906000526020600020908101928215620004ab579160200282015b82811115620004aa57825182908051906020019062000499929190620003c6565b509160200191906001019062000478565b5b509050620004ba9190620004dd565b5090565b5b80821115620004d9576000816000905550600101620004bf565b5090565b5b80821115620005015760008181620004f7919062000505565b50600101620004de565b5090565b5080546200051390620006c5565b6000825580601f1062000527575062000548565b601f016020900490600052602060002090810190620005479190620004be565b5b50565b6000620005626200055c8462000659565b62000630565b9050828152602081018484840111156200057b57600080fd5b620005888482856200068f565b509392505050565b600082601f830112620005a257600080fd5b8151620005b48482602086016200054b565b91505092915050565b60008060408385031215620005d157600080fd5b600083015167ffffffffffffffff811115620005ec57600080fd5b620005fa8582860162000590565b925050602083015167ffffffffffffffff8111156200061857600080fd5b620006268582860162000590565b9150509250929050565b60006200063c6200064f565b90506200064a8282620006fb565b919050565b6000604051905090565b600067ffffffffffffffff82111562000677576200067662000760565b5b62000682826200078f565b9050602081019050919050565b60005b83811015620006af57808201518184015260208101905062000692565b83811115620006bf576000848401525b50505050565b60006002820490506001821680620006de57607f821691505b60208210811415620006f557620006f462000731565b5b50919050565b62000706826200078f565b810181811067ffffffffffffffff8211171562000728576200072762000760565b5b80604052505050565b7f4e487b7100000000000000000000000000000000000000000000000000000000600052602260045260246000fd5b7f4e487b7100000000000000000000000000000000000000000000000000000000600052604160045260246000fd5b6000601f19601f8301169050919050565b613fa580620007b06000396000f3fe608060405234801561001057600080fd5b50600436106101215760003560e01c80636352211e116100ad578063bed34bba11610071578063bed34bba14610318578063c87b56dd14610348578063e8bcbdc014610378578063e985e9c5146103a8578063ea372097146103d857610121565b80636352211e1461026257806370a082311461029257806395d89b41146102c2578063a22cb465146102e0578063b88d4fde146102fc57610121565b80631c7c1a5b116100f45780631c7c1a5b146101c05780631e9b68c3146101f057806323b872dd146101fa5780632d0a1e9d1461021657806342842e0e1461024657610121565b806301ffc9a71461012657806306fdde0314610156578063081812fc14610174578063095ea7b3146101a4575b600080fd5b610140600480360381019061013b91906128dc565b610408565b60405161014d91906130e1565b60405180910390f35b61015e6104ea565b60405161016b91906130fc565b60405180910390f35b61018e6004803603810190610189919061299a565b61057c565b60405161019b9190613051565b60405180910390f35b6101be60048036038101906101b991906128a0565b610601565b005b6101da60048036038101906101d591906129ff565b610719565b6040516101e791906130fc565b60405180910390f35b6101f86107c5565b005b610214600480360381019061020f919061279a565b610916565b005b610230600480360381019061022b919061292e565b610976565b60405161023d91906130fc565b60405180910390f35b610260600480360381019061025b919061279a565b610a30565b005b61027c6004803603810190610277919061299a565b610a50565b6040516102899190613051565b60405180910390f35b6102ac60048036038101906102a79190612735565b610b02565b6040516102b99190613393565b60405180910390f35b6102ca610bba565b6040516102d791906130fc565b60405180910390f35b6102fa60048036038101906102f59190612864565b610c4c565b005b610316600480360381019061031191906127e9565b610dcd565b005b610332600480360381019061032d919061292e565b610e2f565b60405161033f91906130e1565b60405180910390f35b610362600480360381019061035d919061299a565b610e88565b60405161036f91906130fc565b60405180910390f35b610392600480360381019061038d91906129c3565b610fda565b60405161039f91906130fc565b60405180910390f35b6103c260048036038101906103bd919061275e565b611107565b6040516103cf91906130e1565b60405180910390f35b6103f260048036038101906103ed919061299a565b61119b565b6040516103ff91906130fc565b60405180910390f35b60007f80ac58cd000000000000000000000000000000000000000000000000000000007bffffffffffffffffffffffffffffffffffffffffffffffffffffffff1916827bffffffffffffffffffffffffffffffffffffffffffffffffffffffff191614806104d357507f5b5e139f000000000000000000000000000000000000000000000000000000007bffffffffffffffffffffffffffffffffffffffffffffffffffffffff1916827bffffffffffffffffffffffffffffffffffffffffffffffffffffffff1916145b806104e357506104e282611247565b5b9050919050565b6060600080546104f990613666565b80601f016020809104026020016040519081016040528092919081815260200182805461052590613666565b80156105725780601f1061054757610100808354040283529160200191610572565b820191906000526020600020905b81548152906001019060200180831161055557829003601f168201915b5050505050905090565b6000610587826112b1565b6105c6576040517f08c379a00000000000000000000000000000000000000000000000000000000081526004016105bd906132f3565b60405180910390fd5b6004600083815260200190815260200160002060009054906101000a900473ffffffffffffffffffffffffffffffffffffffff169050919050565b600061060c82610a50565b90508073ffffffffffffffffffffffffffffffffffffffff168373ffffffffffffffffffffffffffffffffffffffff16141561067d576040517f08c379a000000000000000000000000000000000000000000000000000000000815260040161067490613353565b60405180910390fd5b8073ffffffffffffffffffffffffffffffffffffffff1661069c61131d565b73ffffffffffffffffffffffffffffffffffffffff1614806106cb57506106ca816106c561131d565b611107565b5b61070a576040517f08c379a000000000000000000000000000000000000000000000000000000000815260040161070190613233565b60405180910390fd5b6107148383611325565b505050565b60606000610726836113de565b9050600061076861073a8661ffff16611698565b61074388611698565b604051602001610754929190612f37565b604051602081830303815290604052611845565b90508151816107779190613712565b90508181815181106107b2577f4e487b7100000000000000000000000000000000000000000000000000000000600052603260045260246000fd5b6020026020010151925050509392505050565b60608060006107d46007611878565b90506107df81611886565b809350819450505060006107f38484610976565b9050600061082f8585610805856118b5565b888860405160200161081b959493929190612fa2565b6040516020818303038152906040526118b5565b9050600081604051602001610844919061302f565b60405160208183030381529060405290506108946040518060400160405280600a81526020017f746f6b656e5552493a200000000000000000000000000000000000000000000081525082611a73565b61089e3385611b0f565b6108a88482611b2d565b6108cb604051806060016040528060258152602001613f0b602591398533611ba1565b6108d56007611c40565b7f5dd00ffcb6618cfa61061cff0e31d2e5871199cfca7a136a4ada2dafa91ab94133856040516109069291906130b8565b60405180910390a1505050505050565b61092761092161131d565b82611c56565b610966576040517f08c379a000000000000000000000000000000000000000000000000000000000815260040161095d90613373565b60405180910390fd5b610971838383611d34565b505050565b606060006008848460405160200161099093929190612f5b565b60405160208183030381529060405290506109df6040518060400160405280601581526020017f0a2d2d2d2d2d2d2d2d2d2d2d2d2d2d2d2d2d2d2d2d0000000000000000000000815250611f90565b6109e881611f90565b610a266040518060400160405280601581526020017f2d2d2d2d2d2d2d2d2d2d2d2d2d2d2d2d2d2d2d2d0a0000000000000000000000815250611f90565b8091505092915050565b610a4b83838360405180602001604052806000815250610dcd565b505050565b6000806002600084815260200190815260200160002060009054906101000a900473ffffffffffffffffffffffffffffffffffffffff169050600073ffffffffffffffffffffffffffffffffffffffff168173ffffffffffffffffffffffffffffffffffffffff161415610af9576040517f08c379a0000000000000000000000000000000000000000000000000000000008152600401610af090613273565b60405180910390fd5b80915050919050565b60008073ffffffffffffffffffffffffffffffffffffffff168273ffffffffffffffffffffffffffffffffffffffff161415610b73576040517f08c379a0000000000000000000000000000000000000000000000000000000008152600401610b6a90613253565b60405180910390fd5b600360008373ffffffffffffffffffffffffffffffffffffffff1673ffffffffffffffffffffffffffffffffffffffff168152602001908152602001600020549050919050565b606060018054610bc990613666565b80601f0160208091040260200160405190810160405280929190818152602001828054610bf590613666565b8015610c425780601f10610c1757610100808354040283529160200191610c42565b820191906000526020600020905b815481529060010190602001808311610c2557829003601f168201915b5050505050905090565b610c5461131d565b73ffffffffffffffffffffffffffffffffffffffff168273ffffffffffffffffffffffffffffffffffffffff161415610cc2576040517f08c379a0000000000000000000000000000000000000000000000000000000008152600401610cb9906131f3565b60405180910390fd5b8060056000610ccf61131d565b73ffffffffffffffffffffffffffffffffffffffff1673ffffffffffffffffffffffffffffffffffffffff16815260200190815260200160002060008473ffffffffffffffffffffffffffffffffffffffff1673ffffffffffffffffffffffffffffffffffffffff16815260200190815260200160002060006101000a81548160ff0219169083151502179055508173ffffffffffffffffffffffffffffffffffffffff16610d7c61131d565b73ffffffffffffffffffffffffffffffffffffffff167f17307eab39ab6107e8899845ad3d59bd9653f200f220920489ca2b5937696c3183604051610dc191906130e1565b60405180910390a35050565b610dde610dd861131d565b83611c56565b610e1d576040517f08c379a0000000000000000000000000000000000000000000000000000000008152600401610e1490613373565b60405180910390fd5b610e2984848484612029565b50505050565b600081604051602001610e429190612f20565b6040516020818303038152906040528051906020012083604051602001610e699190612f20565b6040516020818303038152906040528051906020012014905092915050565b6060610e93826112b1565b610ed2576040517f08c379a0000000000000000000000000000000000000000000000000000000008152600401610ec9906132d3565b60405180910390fd5b6000600660008481526020019081526020016000208054610ef290613666565b80601f0160208091040260200160405190810160405280929190818152602001828054610f1e90613666565b8015610f6b5780601f10610f4057610100808354040283529160200191610f6b565b820191906000526020600020905b815481529060010190602001808311610f4e57829003601f168201915b505050505090506000610f7c612085565b9050600081511415610f92578192505050610fd5565b600082511115610fc7578082604051602001610faf929190612f37565b60405160208183030381529060405292505050610fd5565b610fd08461209c565b925050505b919050565b6060600061101c610fee8461ffff16611698565b610ff786611698565b604051602001611008929190612f37565b604051602081830303815290604052611845565b90506009805490508161102f9190613712565b90506009818154811061106b577f4e487b7100000000000000000000000000000000000000000000000000000000600052603260045260246000fd5b90600052602060002001805461108090613666565b80601f01602080910402602001604051908101604052809291908181526020018280546110ac90613666565b80156110f95780601f106110ce576101008083540402835291602001916110f9565b820191906000526020600020905b8154815290600101906020018083116110dc57829003601f168201915b505050505091505092915050565b6000600560008473ffffffffffffffffffffffffffffffffffffffff1673ffffffffffffffffffffffffffffffffffffffff16815260200190815260200160002060008373ffffffffffffffffffffffffffffffffffffffff1673ffffffffffffffffffffffffffffffffffffffff16815260200190815260200160002060009054906101000a900460ff16905092915050565b600981815481106111ab57600080fd5b9060005260206000200160009150905080546111c690613666565b80601f01602080910402602001604051908101604052809291908181526020018280546111f290613666565b801561123f5780601f106112145761010080835404028352916020019161123f565b820191906000526020600020905b81548152906001019060200180831161122257829003601f168201915b505050505081565b60007f01ffc9a7000000000000000000000000000000000000000000000000000000007bffffffffffffffffffffffffffffffffffffffffffffffffffffffff1916827bffffffffffffffffffffffffffffffffffffffffffffffffffffffff1916149050919050565b60008073ffffffffffffffffffffffffffffffffffffffff166002600084815260200190815260200160002060009054906101000a900473ffffffffffffffffffffffffffffffffffffffff1673ffffffffffffffffffffffffffffffffffffffff1614159050919050565b600033905090565b816004600083815260200190815260200160002060006101000a81548173ffffffffffffffffffffffffffffffffffffffff021916908373ffffffffffffffffffffffffffffffffffffffff160217905550808273ffffffffffffffffffffffffffffffffffffffff1661139883610a50565b73ffffffffffffffffffffffffffffffffffffffff167f8c5be1e5ebec7d5bd14f71427d1e84f3dd0314c0f7b2291e5b200ac8c7c3b92560405160405180910390a45050565b6060600060016009805490506113f4919061356e565b905060008167ffffffffffffffff811115611438577f4e487b7100000000000000000000000000000000000000000000000000000000600052604160045260246000fd5b60405190808252806020026020018201604052801561146b57816020015b60608152602001906001900390816114565790505b5090506000805b60098054905081101561168c5761155586600983815481106114bd577f4e487b7100000000000000000000000000000000000000000000000000000000600052603260045260246000fd5b9060005260206000200180546114d290613666565b80601f01602080910402602001604051908101604052809291908181526020018280546114fe90613666565b801561154b5780601f106115205761010080835404028352916020019161154b565b820191906000526020600020905b81548152906001019060200180831161152e57829003601f168201915b5050505050610e2f565b6116795760098181548110611593577f4e487b7100000000000000000000000000000000000000000000000000000000600052603260045260246000fd5b9060005260206000200180546115a890613666565b80601f01602080910402602001604051908101604052809291908181526020018280546115d490613666565b80156116215780601f106115f657610100808354040283529160200191611621565b820191906000526020600020905b81548152906001019060200180831161160457829003601f168201915b505050505083838151811061165f577f4e487b7100000000000000000000000000000000000000000000000000000000600052603260045260246000fd5b60200260200101819052508180611675906136c9565b9250505b8080611684906136c9565b915050611472565b50819350505050919050565b606060008214156116e0576040518060400160405280600181526020017f30000000000000000000000000000000000000000000000000000000000000008152509050611840565b600082905060005b600082146117125780806116fb906136c9565b915050600a8261170b91906134e3565b91506116e8565b60008167ffffffffffffffff811115611754577f4e487b7100000000000000000000000000000000000000000000000000000000600052604160045260246000fd5b6040519080825280601f01601f1916602001820160405280156117865781602001600182028036833780820191505090505b5090505b600085146118395760018261179f919061356e565b9150600a856117ae9190613712565b60306117ba919061348d565b60f81b8183815181106117f6577f4e487b7100000000000000000000000000000000000000000000000000000000600052603260045260246000fd5b60200101907effffffffffffffffffffffffffffffffffffffffffffffffffffffffffffff1916908160001a905350600a8561183291906134e3565b945061178a565b8093505050505b919050565b6000816040516020016118589190612f20565b6040516020818303038152906040528051906020012060001c9050919050565b600081600001549050919050565b6060806000611896846001610fda565b905060006118a685600284610719565b90508181935093505050915091565b606060008251905060008114156118de5760405180602001604052806000815250915050611a6e565b600060036002836118ef919061348d565b6118f991906134e3565b60046119059190613514565b90506000602082611916919061348d565b67ffffffffffffffff811115611955577f4e487b7100000000000000000000000000000000000000000000000000000000600052604160045260246000fd5b6040519080825280601f01601f1916602001820160405280156119875781602001600182028036833780820191505090505b5090506000604051806060016040528060408152602001613f30604091399050600181016020830160005b86811015611a2b5760038101905062ffffff818a015116603f8160121c168401518060081b905060ff603f83600c1c1686015116810190508060081b905060ff603f8360061c1686015116810190508060081b905060ff603f831686015116810190508060e01b905080845260048401935050506119b2565b506003860660018114611a455760028114611a5557611a60565b613d3d60f01b6002830352611a60565b603d60f81b60018303525b508484525050819450505050505b919050565b611b0b8282604051602401611a8992919061311e565b6040516020818303038152906040527f4b5c4277000000000000000000000000000000000000000000000000000000007bffffffffffffffffffffffffffffffffffffffffffffffffffffffff19166020820180517bffffffffffffffffffffffffffffffffffffffffffffffffffffffff8381831617835250505050612143565b5050565b611b2982826040518060200160405280600081525061216c565b5050565b611b36826112b1565b611b75576040517f08c379a0000000000000000000000000000000000000000000000000000000008152600401611b6c90613293565b60405180910390fd5b80600660008481526020019081526020016000209080519060200190611b9c929190612544565b505050565b611c3b838383604051602401611bb993929190613155565b6040516020818303038152906040527fe3849f79000000000000000000000000000000000000000000000000000000007bffffffffffffffffffffffffffffffffffffffffffffffffffffffff19166020820180517bffffffffffffffffffffffffffffffffffffffffffffffffffffffff8381831617835250505050612143565b505050565b6001816000016000828254019250508190555050565b6000611c61826112b1565b611ca0576040517f08c379a0000000000000000000000000000000000000000000000000000000008152600401611c9790613213565b60405180910390fd5b6000611cab83610a50565b90508073ffffffffffffffffffffffffffffffffffffffff168473ffffffffffffffffffffffffffffffffffffffff161480611d1a57508373ffffffffffffffffffffffffffffffffffffffff16611d028461057c565b73ffffffffffffffffffffffffffffffffffffffff16145b80611d2b5750611d2a8185611107565b5b91505092915050565b8273ffffffffffffffffffffffffffffffffffffffff16611d5482610a50565b73ffffffffffffffffffffffffffffffffffffffff1614611daa576040517f08c379a0000000000000000000000000000000000000000000000000000000008152600401611da190613313565b60405180910390fd5b600073ffffffffffffffffffffffffffffffffffffffff168273ffffffffffffffffffffffffffffffffffffffff161415611e1a576040517f08c379a0000000000000000000000000000000000000000000000000000000008152600401611e11906131d3565b60405180910390fd5b611e258383836121c7565b611e30600082611325565b6001600360008573ffffffffffffffffffffffffffffffffffffffff1673ffffffffffffffffffffffffffffffffffffffff1681526020019081526020016000206000828254611e80919061356e565b925050819055506001600360008473ffffffffffffffffffffffffffffffffffffffff1673ffffffffffffffffffffffffffffffffffffffff1681526020019081526020016000206000828254611ed7919061348d565b92505081905550816002600083815260200190815260200160002060006101000a81548173ffffffffffffffffffffffffffffffffffffffff021916908373ffffffffffffffffffffffffffffffffffffffff160217905550808273ffffffffffffffffffffffffffffffffffffffff168473ffffffffffffffffffffffffffffffffffffffff167fddf252ad1be2c89b69c2b068fc378daa952ba7f163c4a11628f55a4df523b3ef60405160405180910390a4505050565b61202681604051602401611fa491906130fc565b6040516020818303038152906040527f41304fac000000000000000000000000000000000000000000000000000000007bffffffffffffffffffffffffffffffffffffffffffffffffffffffff19166020820180517bffffffffffffffffffffffffffffffffffffffffffffffffffffffff8381831617835250505050612143565b50565b612034848484611d34565b612040848484846121cc565b61207f576040517f08c379a000000000000000000000000000000000000000000000000000000000815260040161207690613193565b60405180910390fd5b50505050565b606060405180602001604052806000815250905090565b60606120a7826112b1565b6120e6576040517f08c379a00000000000000000000000000000000000000000000000000000000081526004016120dd90613333565b60405180910390fd5b60006120f0612085565b90506000815111612110576040518060200160405280600081525061213b565b8061211a84611698565b60405160200161212b929190612f37565b6040516020818303038152906040525b915050919050565b60008151905060006a636f6e736f6c652e6c6f679050602083016000808483855afa5050505050565b6121768383612363565b61218360008484846121cc565b6121c2576040517f08c379a00000000000000000000000000000000000000000000000000000000081526004016121b990613193565b60405180910390fd5b505050565b505050565b60006121ed8473ffffffffffffffffffffffffffffffffffffffff16612531565b15612356578373ffffffffffffffffffffffffffffffffffffffff1663150b7a0261221661131d565b8786866040518563ffffffff1660e01b8152600401612238949392919061306c565b602060405180830381600087803b15801561225257600080fd5b505af192505050801561228357506040513d601f19601f820116820180604052508101906122809190612905565b60015b612306573d80600081146122b3576040519150601f19603f3d011682016040523d82523d6000602084013e6122b8565b606091505b506000815114156122fe576040517f08c379a00000000000000000000000000000000000000000000000000000000081526004016122f590613193565b60405180910390fd5b805181602001fd5b63150b7a0260e01b7bffffffffffffffffffffffffffffffffffffffffffffffffffffffff1916817bffffffffffffffffffffffffffffffffffffffffffffffffffffffff19161491505061235b565b600190505b949350505050565b600073ffffffffffffffffffffffffffffffffffffffff168273ffffffffffffffffffffffffffffffffffffffff1614156123d3576040517f08c379a00000000000000000000000000000000000000000000000000000000081526004016123ca906132b3565b60405180910390fd5b6123dc816112b1565b1561241c576040517f08c379a0000000000000000000000000000000000000000000000000000000008152600401612413906131b3565b60405180910390fd5b612428600083836121c7565b6001600360008473ffffffffffffffffffffffffffffffffffffffff1673ffffffffffffffffffffffffffffffffffffffff1681526020019081526020016000206000828254612478919061348d565b92505081905550816002600083815260200190815260200160002060006101000a81548173ffffffffffffffffffffffffffffffffffffffff021916908373ffffffffffffffffffffffffffffffffffffffff160217905550808273ffffffffffffffffffffffffffffffffffffffff16600073ffffffffffffffffffffffffffffffffffffffff167fddf252ad1be2c89b69c2b068fc378daa952ba7f163c4a11628f55a4df523b3ef60405160405180910390a45050565b600080823b905060008111915050919050565b82805461255090613666565b90600052602060002090601f01602090048101928261257257600085556125b9565b82601f1061258b57805160ff19168380011785556125b9565b828001600101855582156125b9579182015b828111156125b857825182559160200191906001019061259d565b5b5090506125c691906125ca565b5090565b5b808211156125e35760008160009055506001016125cb565b5090565b60006125fa6125f5846133d3565b6133ae565b90508281526020810184848401111561261257600080fd5b61261d848285613624565b509392505050565b600061263861263384613404565b6133ae565b90508281526020810184848401111561265057600080fd5b61265b848285613624565b509392505050565b60008135905061267281613e97565b92915050565b60008135905061268781613eae565b92915050565b60008135905061269c81613ec5565b92915050565b6000815190506126b181613ec5565b92915050565b600082601f8301126126c857600080fd5b81356126d88482602086016125e7565b91505092915050565b600082601f8301126126f257600080fd5b8135612702848260208601612625565b91505092915050565b60008135905061271a81613edc565b92915050565b60008135905061272f81613ef3565b92915050565b60006020828403121561274757600080fd5b600061275584828501612663565b91505092915050565b6000806040838503121561277157600080fd5b600061277f85828601612663565b925050602061279085828601612663565b9150509250929050565b6000806000606084860312156127af57600080fd5b60006127bd86828701612663565b93505060206127ce86828701612663565b92505060406127df86828701612720565b9150509250925092565b600080600080608085870312156127ff57600080fd5b600061280d87828801612663565b945050602061281e87828801612663565b935050604061282f87828801612720565b925050606085013567ffffffffffffffff81111561284c57600080fd5b612858878288016126b7565b91505092959194509250565b6000806040838503121561287757600080fd5b600061288585828601612663565b925050602061289685828601612678565b9150509250929050565b600080604083850312156128b357600080fd5b60006128c185828601612663565b92505060206128d285828601612720565b9150509250929050565b6000602082840312156128ee57600080fd5b60006128fc8482850161268d565b91505092915050565b60006020828403121561291757600080fd5b6000612925848285016126a2565b91505092915050565b6000806040838503121561294157600080fd5b600083013567ffffffffffffffff81111561295b57600080fd5b612967858286016126e1565b925050602083013567ffffffffffffffff81111561298457600080fd5b612990858286016126e1565b9150509250929050565b6000602082840312156129ac57600080fd5b60006129ba84828501612720565b91505092915050565b600080604083850312156129d657600080fd5b60006129e485828601612720565b92505060206129f58582860161270b565b9150509250929050565b600080600060608486031215612a1457600080fd5b6000612a2286828701612720565b9350506020612a338682870161270b565b925050604084013567ffffffffffffffff811115612a5057600080fd5b612a5c868287016126e1565b9150509250925092565b612a6f816135a2565b82525050565b612a7e816135b4565b82525050565b6000612a8f8261344a565b612a998185613460565b9350612aa9818560208601613633565b612ab2816137ff565b840191505092915050565b6000612ac882613455565b612ad28185613471565b9350612ae2818560208601613633565b612aeb816137ff565b840191505092915050565b6000612b0182613455565b612b0b8185613482565b9350612b1b818560208601613633565b80840191505092915050565b60008154612b3481613666565b612b3e8186613482565b94506001821660008114612b595760018114612b6a57612b9d565b60ff19831686528186019350612b9d565b612b7385613435565b60005b83811015612b9557815481890152600182019150602081019050612b76565b838801955050505b50505092915050565b6000612bb3601983613482565b9150612bbe82613810565b601982019050919050565b6000612bd6603283613471565b9150612be182613839565b604082019050919050565b6000612bf9600383613482565b9150612c0482613888565b600382019050919050565b6000612c1c601c83613471565b9150612c27826138b1565b602082019050919050565b6000612c3f602483613471565b9150612c4a826138da565b604082019050919050565b6000612c62601983613471565b9150612c6d82613929565b602082019050919050565b6000612c85604d83613482565b9150612c9082613952565b604d82019050919050565b6000612ca8604583613482565b9150612cb3826139c7565b604582019050919050565b6000612ccb602c83613471565b9150612cd682613a3c565b604082019050919050565b6000612cee600d83613482565b9150612cf982613a8b565b600d82019050919050565b6000612d11603883613471565b9150612d1c82613ab4565b604082019050919050565b6000612d34602a83613471565b9150612d3f82613b03565b604082019050919050565b6000612d57602983613471565b9150612d6282613b52565b604082019050919050565b6000612d7a602e83613471565b9150612d8582613ba1565b604082019050919050565b6000612d9d602083613471565b9150612da882613bf0565b602082019050919050565b6000612dc0603183613471565b9150612dcb82613c19565b604082019050919050565b6000612de3602c83613471565b9150612dee82613c68565b604082019050919050565b6000612e06602983613471565b9150612e1182613cb7565b604082019050919050565b6000612e29602f83613471565b9150612e3482613d06565b604082019050919050565b6000612e4c600483613482565b9150612e5782613d55565b600482019050919050565b6000612e6f600a83613482565b9150612e7a82613d7e565b600a82019050919050565b6000612e92601d83613482565b9150612e9d82613da7565b601d82019050919050565b6000612eb5602183613471565b9150612ec082613dd0565b604082019050919050565b6000612ed8601d83613482565b9150612ee382613e1f565b601d82019050919050565b6000612efb603183613471565b9150612f0682613e48565b604082019050919050565b612f1a8161361a565b82525050565b6000612f2c8284612af6565b915081905092915050565b6000612f438285612af6565b9150612f4f8284612af6565b91508190509392505050565b6000612f678286612b27565b9150612f738285612af6565b9150612f7e82612c9b565b9150612f8a8284612af6565b9150612f9582612ba6565b9150819050949350505050565b6000612fad82612e62565b9150612fb98288612af6565b9150612fc482612bec565b9150612fd08287612af6565b9150612fdb82612c78565b9150612fe78286612af6565b9150612ff282612e85565b9150612ffe8285612af6565b915061300982612ce1565b91506130158284612af6565b915061302082612e3f565b91508190509695505050505050565b600061303a82612ecb565b91506130468284612af6565b915081905092915050565b60006020820190506130666000830184612a66565b92915050565b60006080820190506130816000830187612a66565b61308e6020830186612a66565b61309b6040830185612f11565b81810360608301526130ad8184612a84565b905095945050505050565b60006040820190506130cd6000830185612a66565b6130da6020830184612f11565b9392505050565b60006020820190506130f66000830184612a75565b92915050565b600060208201905081810360008301526131168184612abd565b905092915050565b600060408201905081810360008301526131388185612abd565b9050818103602083015261314c8184612abd565b90509392505050565b6000606082019050818103600083015261316f8186612abd565b905061317e6020830185612f11565b61318b6040830184612a66565b949350505050565b600060208201905081810360008301526131ac81612bc9565b9050919050565b600060208201905081810360008301526131cc81612c0f565b9050919050565b600060208201905081810360008301526131ec81612c32565b9050919050565b6000602082019050818103600083015261320c81612c55565b9050919050565b6000602082019050818103600083015261322c81612cbe565b9050919050565b6000602082019050818103600083015261324c81612d04565b9050919050565b6000602082019050818103600083015261326c81612d27565b9050919050565b6000602082019050818103600083015261328c81612d4a565b9050919050565b600060208201905081810360008301526132ac81612d6d565b9050919050565b600060208201905081810360008301526132cc81612d90565b9050919050565b600060208201905081810360008301526132ec81612db3565b9050919050565b6000602082019050818103600083015261330c81612dd6565b9050919050565b6000602082019050818103600083015261332c81612df9565b9050919050565b6000602082019050818103600083015261334c81612e1c565b9050919050565b6000602082019050818103600083015261336c81612ea8565b9050919050565b6000602082019050818103600083015261338c81612eee565b9050919050565b60006020820190506133a86000830184612f11565b92915050565b60006133b86133c9565b90506133c48282613698565b919050565b6000604051905090565b600067ffffffffffffffff8211156133ee576133ed6137d0565b5b6133f7826137ff565b9050602081019050919050565b600067ffffffffffffffff82111561341f5761341e6137d0565b5b613428826137ff565b9050602081019050919050565b60008190508160005260206000209050919050565b600081519050919050565b600081519050919050565b600082825260208201905092915050565b600082825260208201905092915050565b600081905092915050565b60006134988261361a565b91506134a38361361a565b9250827fffffffffffffffffffffffffffffffffffffffffffffffffffffffffffffffff038211156134d8576134d7613743565b5b828201905092915050565b60006134ee8261361a565b91506134f98361361a565b92508261350957613508613772565b5b828204905092915050565b600061351f8261361a565b915061352a8361361a565b9250817fffffffffffffffffffffffffffffffffffffffffffffffffffffffffffffffff048311821515161561356357613562613743565b5b828202905092915050565b60006135798261361a565b91506135848361361a565b92508282101561359757613596613743565b5b828203905092915050565b60006135ad826135fa565b9050919050565b60008115159050919050565b60007fffffffff0000000000000000000000000000000000000000000000000000000082169050919050565b600061ffff82169050919050565b600073ffffffffffffffffffffffffffffffffffffffff82169050919050565b6000819050919050565b82818337600083830152505050565b60005b83811015613651578082015181840152602081019050613636565b83811115613660576000848401525b50505050565b6000600282049050600182168061367e57607f821691505b60208210811415613692576136916137a1565b5b50919050565b6136a1826137ff565b810181811067ffffffffffffffff821117156136c0576136bf6137d0565b5b80604052505050565b60006136d48261361a565b91507fffffffffffffffffffffffffffffffffffffffffffffffffffffffffffffffff82141561370757613706613743565b5b600182019050919050565b600061371d8261361a565b91506137288361361a565b92508261373857613737613772565b5b828206905092915050565b7f4e487b7100000000000000000000000000000000000000000000000000000000600052601160045260246000fd5b7f4e487b7100000000000000000000000000000000000000000000000000000000600052601260045260246000fd5b7f4e487b7100000000000000000000000000000000000000000000000000000000600052602260045260246000fd5b7f4e487b7100000000000000000000000000000000000000000000000000000000600052604160045260246000fd5b6000601f19601f8301169050919050565b7f3c2f747370616e3e3c2f746578743e3c2f673e3c2f7376673e00000000000000600082015250565b7f4552433732313a207472616e7366657220746f206e6f6e20455243373231526560008201527f63656976657220696d706c656d656e7465720000000000000000000000000000602082015250565b7f2078200000000000000000000000000000000000000000000000000000000000600082015250565b7f4552433732313a20746f6b656e20616c7265616479206d696e74656400000000600082015250565b7f4552433732313a207472616e7366657220746f20746865207a65726f2061646460008201527f7265737300000000000000000000000000000000000000000000000000000000602082015250565b7f4552433732313a20617070726f766520746f2063616c6c657200000000000000600082015250565b7f222c20226465736372697074696f6e223a202254776f206669736820696e207460008201527f686520736561222c2022696d616765223a2022646174613a696d6167652f737660208201527f672b786d6c3b6261736536342c00000000000000000000000000000000000000604082015250565b7f3c2f747370616e3e3c747370616e20783d27313430272064793d27312e32656d60008201527f273e783c2f747370616e3e3c747370616e20783d27313430272064793d27312e60208201527f32656d273e000000000000000000000000000000000000000000000000000000604082015250565b7f4552433732313a206f70657261746f7220717565727920666f72206e6f6e657860008201527f697374656e7420746f6b656e0000000000000000000000000000000000000000602082015250565b7f222c20226368617232223a202200000000000000000000000000000000000000600082015250565b7f4552433732313a20617070726f76652063616c6c6572206973206e6f74206f7760008201527f6e6572206e6f7220617070726f76656420666f7220616c6c0000000000000000602082015250565b7f4552433732313a2062616c616e636520717565727920666f7220746865207a6560008201527f726f206164647265737300000000000000000000000000000000000000000000602082015250565b7f4552433732313a206f776e657220717565727920666f72206e6f6e657869737460008201527f656e7420746f6b656e0000000000000000000000000000000000000000000000602082015250565b7f45524337323155524953746f726167653a2055524920736574206f66206e6f6e60008201527f6578697374656e7420746f6b656e000000000000000000000000000000000000602082015250565b7f4552433732313a206d696e7420746f20746865207a65726f2061646472657373600082015250565b7f45524337323155524953746f726167653a2055524920717565727920666f722060008201527f6e6f6e6578697374656e7420746f6b656e000000000000000000000000000000602082015250565b7f4552433732313a20617070726f76656420717565727920666f72206e6f6e657860008201527f697374656e7420746f6b656e0000000000000000000000000000000000000000602082015250565b7f4552433732313a207472616e73666572206f6620746f6b656e2074686174206960008201527f73206e6f74206f776e0000000000000000000000000000000000000000000000602082015250565b7f4552433732314d657461646174613a2055524920717565727920666f72206e6f60008201527f6e6578697374656e7420746f6b656e0000000000000000000000000000000000602082015250565b7f227d207d00000000000000000000000000000000000000000000000000000000600082015250565b7f7b226e616d65223a202200000000000000000000000000000000000000000000600082015250565b7f222c202261747472696275746573223a207b20226368617231223a2022000000600082015250565b7f4552433732313a20617070726f76616c20746f2063757272656e74206f776e6560008201527f7200000000000000000000000000000000000000000000000000000000000000602082015250565b7f646174613a6170706c69636174696f6e2f6a736f6e3b6261736536342c000000600082015250565b7f4552433732313a207472616e736665722063616c6c6572206973206e6f74206f60008201527f776e6572206e6f7220617070726f766564000000000000000000000000000000602082015250565b613ea0816135a2565b8114613eab57600080fd5b50565b613eb7816135b4565b8114613ec257600080fd5b50565b613ece816135c0565b8114613ed957600080fd5b50565b613ee5816135ec565b8114613ef057600080fd5b50565b613efc8161361a565b8114613f0757600080fd5b5056fe416e204e465420772f20494420257320686173206265656e206d696e74656420746f2025734142434445464748494a4b4c4d4e4f505152535455565758595a6162636465666768696a6b6c6d6e6f707172737475767778797a303132333435363738392b2fa2646970667358221220607aeafc2665adfe1e500503829e308d6bf14b8585bb19f792eeb39d14f2468b64736f6c634300080400333c7376672076696577426f783d273132362e3634392038312e313335203234362e373032203135362e3333322720786d6c6e733d27687474703a2f2f7777772e77332e6f72672f323030302f737667273e3c646566733e3c6c696e6561724772616469656e74206772616469656e74556e6974733d277573657253706163654f6e557365272078313d273139392e323039272079313d2738352e373532272078323d273139392e323039272079323d273234322e303834272069643d276772616469656e742d3127207370726561644d6574686f643d2770616427206772616469656e745472616e73666f726d3d276d617472697828302e3330323833352c20302e3935333034332c202d312e3335343433352c20302e3433303337392c203430302e3134353239342c202d35372e3233353529273e3c73746f70206f66667365743d273027207374796c653d2773746f702d636f6c6f723a2072676261283235352c203137382c203131352c203129272f3e3c73746f70206f66667365743d273127207374796c653d2773746f702d636f6c6f723a2072676261283235352c203132322c2031332c203129272f3e3c2f6c696e6561724772616469656e743e3c2f646566733e3c67207472616e73666f726d3d276d617472697828312c20302c20302c20312c20302e3030303030312c202d342e36313734313429273e3c7265637420783d273132362e3634392720793d2738352e373532272077696474683d273234362e37303227206865696768743d273135362e33333227207374796c653d277061696e742d6f726465723a2066696c6c3b2066696c6c2d72756c653a206e6f6e7a65726f3b2066696c6c3a2075726c28236772616469656e742d31293b272f3e3c74657874207374796c653d2766696c6c3a20726762283235352c203235352c20323535293b20666f6e742d66616d696c793a20417269616c2c2073616e732d73657269663b20666f6e742d73697a653a20323170783b20666f6e742d7765696768743a203730303b20746578742d7472616e73666f726d3a207570706572636173653b2077686974652d73706163653a207072653b2720783d273530252720793d27313530273e3c747370616e20783d27313430272064793d27312e32656d273e",
  "linkReferences": {},
  "deployedLinkReferences": {}
}